:100000000C940D010C942A010C942A010C942A01E1
:100010000C942A010C942A010C942A010C942A01B4
:100020000C942A010C942A010C942A010C942A01A4
:100030000C942A010C942A010C942A010C942A0194
:100040000C942A010C942A010C942A010C942A0184
:100050000C94420A0C942A010C942A010C942A0153
:100060000C942A010C942A010C942A010C942A0164
:100070000C942A010C942A010C942A010C942A0154
:100080000C942A010C942A010C942A010C942A0144
:100090000C942A010C942A010C942A010C942A0134
:1000A0000C942A010C942A010C942A010C94D50971
:1000B0000C942A010C942A010C946C010C94180ADB
:1000C0000C942A010C942A010C942A010C942A0104
:1000D0000C942A010C942A010C942A010C942A01F4
:1000E0000C942A010C942A010C942A010C942A01E4
:1000F0000C942A010C942A010C942A010C942A01D4
:100100000C942A010C942A010C942A010C942A01C3
:100110000C941D030C9441030C942A010C942A01A5
:100120000C942A010C942A010C94780A0C942A014C
:100130000C942A010C94AD030C942A010C946503D1
:100140000C9489030C942A010C942A010C942A0122
:100150000C942A010C942A010C942A010C942A0173
:100160000C942A010C942A010C942A010C942A0163
:100170000C942A010C942A010C942A010C942A0153
:100180000C942A010C942A010C942A010C942A0143
:100190000C942A010C942A010C942A010C942A0133
:1001A0000C942A010C942A010C942A010C942A0123
:1001B0000C942A010C942A010C942A010C942A0113
:1001C0000C942A010C942A010C942A010C942A0103
:1001D0000C942A010C942A010C942A010C942A01F3
:1001E0000C942A010C942A010C942A010C942A01E3
:1001F0000C942A010C942A010C942A0105A84CCDD8
:10020000B2D44EB93836A9020C50B9918688083C50
:10021000A6AAAA2ABE000000803F11241FBECFEF6D
:10022000CDBFD7E2DEBF10E2A0E0B0E2ECE3FEE13A
:1002300002C005900D92A630B107D9F720E2A6E0E2
:10024000B0E201C01D92AE36B207E1F70E94CE09BE
:100250000C941C0F0C940000E0EAF4E0858388EB1A
:10026000818381E0848308950F93909100209923E6
:10027000E1F3609320207093212040931F2020936E
:100280001B2030931C2000931D20880F80931E207C
:100290001092002080911F20882321F080911E2041
:1002A0008E7F07C080911D20882331F080911E2011
:1002B00081608093A60403C081E0809300200F91A9
:1002C00008950F9300E020E030E00E9434010F9188
:1002D00008958091002008951F920F920FB60F92FB
:1002E00011248F939F93EF93FF938091A40483FF36
:1002F00008C08091A40488608093A40482E090E008
:100300006AC08091A40482FF0CC08091A404846020
:100310008093A40481E090E0809322209093232096
:100320005FC08091A40486FF2BC08091A40484FF49
:1003300006C083E08093A30483E090E04CC08091EA
:100340001F20882389F0E0912020F09121208191C5
:100350008093A704E0932020F093212080911F2018
:10036000815080931F203EC080911D20882331F052
:1003700080911E2081608093A60434C083E022C057
:100380008091A40487FF25C080911D208823C9F097
:10039000E0911B20F0911C208091A704808382E0D3
:1003A0008093A30480911B2090911C200196809340
:1003B0001B2090931C2080911D20815080931D2034
:1003C00011C087E08093A304109222201092232072
:1003D00006C084E090E0809322209093232081E067
:1003E00080930020FF91EF919F918F910F900FBE0E
:1003F0000F901F90189540910720842F869593E0C9
:10040000909384039FE19093850395EC90938003F0
:100410009093810390E0880F991F9C0143E0220F85
:10042000331F4A95E1F7276020938203019653E03A
:10043000880F991F5A95E1F7876080938303109284
:100440000009109220091092210980E29EE4809315
:1004500026099093270980910609836080930609F5
:10046000809107098F608093070988EE93E080935D
:1004700028099093290980932A0990932B0985E0F4
:100480008093000980E28093450610922920109203
:100490002A20109246201092472010922B20109272
:1004A0002820089520910720220FF89481E090E001
:1004B000022E01C0880F0A94EAF78093650683E054
:1004C00001C0880F2A95EAF7282F8AE090E035E8E6
:1004D0003A95F1F700002093670601970097B9F766
:1004E0008FEF8093660678940895E0E8F3E08081CA
:1004F000806380830895E0E8F3E0818180638183F5
:1005000008958091200990912109209146203091F1
:100510004720AC01421B530B4E31510520F4209172
:1005200028202F5F05C0809346209093472021E02C
:100530002093282020912820233060F020918003F0
:100540002F7C2093800320E2209346068093462050
:10055000909347200895809120099091210920913E
:10056000292030912A20AC01421B530B4E315105FA
:1005700020F420912B202F5F05C080932920909399
:100580002A2021E020932B2020912B20233060F083
:10059000209181032F7C2093810320E22093460643
:1005A0008093292090932A200895E0E8F3E0808149
:1005B0008F7C808381818F7C8183089580E280930A
:1005C00046060E94D502809106208823A9F1409119
:1005D0000720242F30E080912820833028F080915C
:1005E00046209091472002C080E090E0220F331F08
:1005F000220F331FF901E25DFF4D808391838091CB
:100600002B20833028F08091292090912A2002C04D
:1006100080E090E0F901E25DFF4D8283938381E009
:10062000840F843018F48093072002C010920720B2
:100630000E94FB010C94520208951F920F920FB674
:100640000F9211242F933F934F935F936F937F9358
:100650008F939F93AF93BF93EF93FF930E94810279
:10066000FF91EF91BF91AF919F918F917F916F918A
:100670005F914F913F912F910F900FBE0F901F9060
:1006800018951F920F920FB60F9211242F933F933C
:100690004F935F936F937F938F939F93AF93BF938A
:1006A000EF93FF930E94AB02FF91EF91BF91AF9147
:1006B0009F918F917F916F915F914F913F912F917A
:1006C0000F900FBE0F901F9018951F920F920FB6AC
:1006D0000F9211242F933F934F935F936F937F93C8
:1006E0008F939F93AF93BF93EF93FF930E947502F5
:1006F000FF91EF91BF91AF919F918F917F916F91FA
:100700005F914F913F912F910F900FBE0F901F90CF
:1007100018951F920F920FB60F9211242F933F93AB
:100720004F935F936F937F938F939F93AF93BF93F9
:10073000EF93FF930E947B02FF91EF91BF91AF91E6
:100740009F918F917F916F915F914F913F912F91E9
:100750000F900FBE0F901F9018951F920F920FB61B
:100760000F9211242F933F934F935F936F937F9337
:100770008F939F93AF93BF93EF93FF930E94DE02FB
:10078000FF91EF91BF91AF919F918F917F916F9169
:100790005F914F913F912F910F900FBE0F901F903F
:1007A00018959091082080914820923031F4811161
:1007B0000EC083E08093082006C0943041F481117C
:1007C00006C01092082088E090E20E9428058091DF
:1007D0004820882319F08150809348200895CF93B2
:1007E000DF9300D0CDB7DEB780910820909109202B
:1007F00089839A83CE0101960E9418052981822F50
:1008000090E03A81309309208130910519F42093CA
:1008100008200AC0029731F42093082084E68093D0
:10082000482002C0109208200F900F90DF91CF91C6
:1008300008958B3091F480910820823068F56E7FA6
:1008400080910920681741F184E08093082084E6B4
:1008500080934820609309201BC08730E9F4262F3D
:100860002E7F30E08091092090E028173907A1F40D
:1008700060FF08C08091082081110AC081E0809348
:10088000082006C082E08093082084E680934820F8
:1008900088E090E20C942805089580910820833028
:1008A00011F41092082008958091082090E0089596
:1008B00090910320899F802D112420E030E090E06A
:1008C0002817390764F44FEF59EF60E0415050406A
:1008D0006040E1F700C000002F5F3F4FF1CF089567
:1008E000CF93DF93EC0146E0D695C7954A95E1F7A3
:1008F000CF71D82FDF73C11194C086EC8D0F823079
:1009000068F4DB3319F41092152003C081E0809362
:1009100015206091152082E090E049C084EC8D0F95
:10092000823060F5DD3391F48091042090910520B0
:1009300088319C4FE0F480910420909105208851EB
:100940009C4F809304209093052011C02091042097
:1009500030910520293E334050F020910420309101
:100960000520285E334020930420309305206091B9
:1009700004207091052084E090E051C08AEC8D0F36
:100980008230C0F480910320D73331F48B3058F497
:10099000809103208F5F05C0823028F08091032072
:1009A0008150809303206091032083E090E00E94B7
:1009B000F40E37C0DF3319F40E944D0432C08CECC2
:1009C0008D0F823048F4D43321F481E080931120DC
:1009D00028C01092112025C08EEC8D0F823008F5B2
:1009E00088EC809310202091012030910220D23396
:1009F00031F42436310568F02456310906C02D3310
:100A00008FE0380730F42C593F4F2093012030936A
:100A10000220609101207091022080E090E00E940D
:100A2000170F6D2F8C2FDF91CF910C94190408951F
:100A3000CF93DF93EC018AE090E00E94DF0E888381
:100A40008BE090E00E94DF0E8983DF91CF910895C3
:100A5000CF93DF93EC0168818AE090E00E94F40E6E
:100A600069818BE090E0DF91CF910C94F40EE0E48B
:100A7000F6E0208530E002C0359527958A95E2F7AB
:100A8000822F809581700895CF93C82F88E090E0E1
:100A90000E94EF0E9C01215031092F3F3F4038F456
:100AA000C11105C08093492090934A200CC088EB67
:100AB0009BE08093492090934A2068EB7BE088E09C
:100AC00090E00E94170F86E090E00E94EF0E0197E1
:100AD0008F3F9F4010F4CC2331F06CE271E086E050
:100AE00090E00E94170F84E090E00E94EF0E809348
:100AF0000420909305202091042030910520283E69
:100B0000334010F0CC2371F02FEF3FE3209304200B
:100B100030930520609104207091052084E090E0DE
:100B20000E94170F83E090E00E94DF0E8093032065
:100B3000809103208B3010F4CC2349F085E0809322
:100B400003206091032083E090E00E94F40E82E095
:100B500090E00E94DF0E80931520CC2341F010928C
:100B600015206091152082E090E00E94F40E80E054
:100B700090E00E94EF0E9C01215031092F3F3F4031
:100B800040F4C11106C08093012090930220CF91C0
:100B9000089580ED97E0809301209093022060ED0E
:100BA00077E080E090E0CF910C94170FCF9387E02F
:100BB0008093A20078940E94850B40E060E070E092
:100BC00080E00E94A00B40E060E070E081E00E94C5
:100BD000A00B8BE990E00E942C0160E080E00E9475
:100BE0004E0B0E94120C8091920680939206809187
:100BF0008A06846080938A06809189068F6080933C
:100C000089061092200A1092210AC3E0C093060AB6
:100C10000E94EF0388E893E1809366089093670849
:100C2000109260081092610885E080934008C0939C
:100C3000460820E047E050E060E170E080E092E0AC
:100C40000E945E0B40E050E060E080E292E00E9493
:100C5000750B40E050E068E088E292E00E94750B7E
:100C600040E050E060E180E392E00E94750B41E0DB
:100C700050E068E188E392E00E94750B68EC70E058
:100C800080E092E00E947B0B809114208823E1F3A6
:100C900080E0CF910C94440580915B2090915C2082
:100CA00061E070E0883B9B4010F460E070E082E01F
:100CB0000E94180B80915D2090915E2061E070E0B1
:100CC000883B9B4010F460E070E083E00E94180BCA
:100CD00080915F209091602061E070E0883B9B40B4
:100CE00010F460E070E080E00E94180B80916120B9
:100CF0009091622061E070E0883B9B4010F460E0DE
:100D000070E081E00C94180B20915720309158200E
:100D100080910120909102208217930748F086E08D
:100D20000E94370561E070E0882321F060E002C096
:100D300060E070E082E00E94180B20914F2030911B
:100D4000502080910120909102208217930748F053
:100D500086E00E94370561E070E0882321F060E0C2
:100D600002C060E070E083E00E94180B20915920DF
:100D700030915A2080910120909102208217930790
:100D800048F087E00E94370561E070E0882321F099
:100D900060E002C060E070E080E00E94180B2091EB
:100DA0005120309152208091012090910220821791
:100DB000930748F087E00E94370561E070E08823E0
:100DC00021F060E002C060E070E081E00C94180B5C
:100DD0008F929F92AF92BF92CF92DF92EF92FF924B
:100DE0000F931F93CF93DF938091152060910E2076
:100DF00070910F20882319F071956195710980E039
:100E000090E00E94430D2DEC3CEC4CEC5CE30E9426
:100E1000320E60930A2070930B2080930C209093E5
:100E20000D200E945404892B09F089C0C0900A202B
:100E3000D0900B20E0900C20F0900D20C701B6015F
:100E40000E94140D4B015C01C701B6010E94950E72
:100E50006B017C01C501B4019F7720E030E04FE7D2
:100E600053E40E94320E9B01AC0160E070E08FE71A
:100E700093E40E94AB0C0E94170D862F0E94120B68
:100E8000C701B6019F7720E030E04FE753E40E94AE
:100E9000320E9B01AC0160E070E08FE793E40E94AA
:100EA000AB0C0E94170D862F0E94150B809110200D
:100EB000882319F00E948406ABC020E030E0A9012D
:100EC000C701B6010E94100D87FF03C063E070E008
:100ED00002C061E070E080E00E94180B20E030E08A
:100EE000A901C501B4010E942E0E18161CF462E07F
:100EF00070E002C061E070E081E00E94180B20E029
:100F000030E0A901C501B4010E94100D682F7727B8
:100F100067FD70956627770F661F77276F5F7F4F96
:100F200082E00E94180B20E030E0A901C701B60161
:100F30000E942E0E18160CF563E070E066C00E9449
:100F40005404019739F4809111208111B3CF0E948C
:100F50004C065EC00E945404049791F461E070E076
:100F600080E00E94180B61E070E081E00E94180BA5
:100F700061E070E082E00E94180B61E070E045C023
:100F80000E945404029791F460E070E080E00E94B7
:100F9000180B60E070E081E00E94180B60E070E0E8
:100FA00082E00E94180B60E070E02FC060910A2080
:100FB00070910B2080910C2090910D200E94140DB7
:100FC0009F7720E030E04FE753E40E94320E9B0110
:100FD000AC0160E070E08FE793E40E94AB0C0E94EC
:100FE000170D862F0E94120B62E070E080E00E94D5
:100FF000180B62E070E081E00E94180B62E070E084
:1010000082E00E94180B62E070E083E00E94180BFF
:101010000E942D0B0E945404019709F091C1809108
:10102000612090916220883B9B4068F480915F2012
:1010300090916020883B9B4030F460910420709137
:10104000052041E091C080915D2090915E20883B19
:101050009B40D8F480915B2090915C20883B9B4022
:10106000A0F4609104207091052040E080E00E948F
:10107000A00B609104207091052040E081E00E9467
:10108000A00B81E00E94580467C180915F2090917D
:101090006020883B9B4038F080915D2090915E20DD
:1010A000883B9B4050F580915F209091602060913B
:1010B000042070910520883B9B4050F441E080E083
:1010C0000E94A00B609104207091052041E009C0AE
:1010D00040E080E00E94A00B609104207091052008
:1010E00040E081E00E94A00B82E00E9458046091E1
:1010F00004207091052041E0B9CF8091612090914A
:101100006220883B9B4038F080915B2090915C206E
:10111000883B9B4090F58091612090916220609186
:10112000042070910520883B9B4050F441E080E012
:101130000E94A00B609104207091052041E009C03D
:1011400040E080E00E94A00B609104207091052097
:1011500040E081E00E94A00B82E00E945804609170
:1011600004207091052040E080E00E94A00B609177
:1011700004207091052041E081CF80915120909111
:101180005220E0900120F090022001E0E816F906DC
:1011900008F000E08091592090915A20D1E0E816A3
:1011A000F90608F0D0E0A0904F20B0905020C090F9
:1011B0005720D0905820002349F0DD2339F060916A
:1011C00004207091052040E080E0A8C087E00E94E4
:1011D00037058111F4CF11E0EA14FB0408F010E0A8
:1011E000C1E0EC14FD0408F0C0E0112341F0CC2371
:1011F00031F0609104207091052041E098C086E0B4
:101200000E9437058111F5CF011103C0D11103C030
:1012100036C0DD23D1F0609104207091052040E0BC
:1012200080E00E94A00B609104207091052080E076
:1012300090E00E94430D20E030E040E05FE30E9438
:10124000320E0E94170D40E059C060910420709149
:10125000052080E090E00E94430D20E030E040E077
:101260005FE30E94320E0E94170D40E080E00E9472
:10127000A00B609104207091052040E020C0111166
:1012800003C0C11103C041C0CC23F9F06091042018
:101290007091052041E080E00E94A00B6091042045
:1012A0007091052080E090E00E94430D20E030E046
:1012B00040E05FE30E94320E0E94170D41E081E0A2
:1012C0000E94A00B1092152047C0609104207091DD
:1012D000052080E090E00E94430D20E030E040E0F7
:1012E0005FE30E94320E0E94170D41E080E00E94F1
:1012F000A00B609104207091052041E081E00E94E4
:10130000A00B81E08093152027C08091152060916B
:10131000042070910520811109C041E00E94A00BBA
:10132000609104207091052040E013C040E080E00F
:101330000E94A00B609104207091052041E009C03B
:1013400040E060E070E080E00E94A00B40E060E0E0
:1013500070E081E00E94A00B8FE79EE30197F1F718
:1013600000C00000DF91CF911F910F91FF90EF908F
:10137000DF90CF90BF90AF909F908F90089588EDB1
:1013800084BF82E0809350008091510081FFFCCFA8
:1013900088ED84BF81E08093400008950E94BF09DA
:1013A0000E94D6050E94E806FDCF1F920F920FB64D
:1013B0000F9211242F933F934F935F936F937F93DB
:1013C0008F939F93AF93BF93CF93DF93EF93FF934D
:1013D000C0E0DAE0188288A199A1809363209093FD
:1013E0006420E0E8F6E0808582FB882780F980931E
:1013F00065206091652080916320909164200E9417
:10140000140C18A219A285E08883FF91EF91DF9157
:10141000CF91BF91AF919F918F917F916F915F918C
:101420004F913F912F910F900FBE0F901F901895E5
:101430001F920F920FB60F9211242F933F934F9349
:101440005F936F937F938F939F93AF93BF93EF932C
:10145000FF9360E070E080E090E00E94070C109243
:10146000000AFF91EF91BF91AF919F918F917F9172
:101470006F915F914F913F912F910F900FBE0F9001
:101480001F9018951F920F920FB60F9211242F9351
:101490003F934F935F936F937F938F939F93AF93FC
:1014A000BF93EF93FF9380910E2090910F200196B0
:1014B00080930E2090930F200E94D10380911020E2
:1014C000882329F080911020815080931020FF9173
:1014D000EF91BF91AF919F918F917F916F915F91AC
:1014E0004F913F912F910F900FBE0F901F90189525
:1014F0001F920F920FB60F9211242F933F934F9389
:101500005F936F937F938F939F93AF93BF93EF936B
:10151000FF93E0911220F0E080911002909111026F
:10152000EE0FFF1FE55BFF4D80839183E09112205A
:10153000F0E08091120290911302EE0FFF1FE35B27
:10154000FF4D80839183E0911220F0E0809114029E
:1015500090911502EE0FFF1FE15BFF4D8083918399
:10156000E0911220F0E08091160290911702EE0FA8
:10157000FF1FEF5AFF4D80839183809112208C5F73
:1015800080931220809112208C3028F0109212202B
:1015900081E08093142060911220660F660F660F21
:1015A00040E050E080E292E00E94750B60911220D2
:1015B0006F5F660F660F660F40E050E088E292E0D2
:1015C0000E94750B609112206E5F660F660F660FAA
:1015D00040E050E080E392E00E94750B60911220A1
:1015E0006D5F660F660F660F41E050E088E392E0A2
:1015F0000E94750BFF91EF91BF91AF919F918F91D9
:101600007F916F915F914F913F912F910F900FBEFE
:101610000F901F901895109218201092172010927A
:101620001620089580931820089580931720089518
:10163000880F23E030E0082E01C0220F0A94EAF759
:101640002095909116202923082E01C0660F0A9438
:10165000EAF7262B20931620089581E180936620D7
:1016600080911A20809367208091182080936820B1
:1016700080911920809369208091172080936A209F
:101680008091162080936B200E9469018823E1F3EA
:1016900046E066E670E282E60C94610180931A20CF
:1016A000609319200E940B0B0C942D0BAAECB1E057
:1016B00022E02C93FC0184911C920895CF93DF9338
:1016C000EC0181E0888329836A834C8380E290E087
:1016D0000E94560B8C8781E290E00E94560B8D870A
:1016E0008DEE8B83DF91CF910895FC0181E08083A3
:1016F0006183428308952DEEFC01238321E0208342
:10170000E0E8F1E06583158608958FE0E0E4F6E017
:10171000818383E0809301081092280810922908A1
:1017200010922A0810922B0810922C0810922D0863
:1017300010922E0810922F0882E0809300080895DE
:10174000A82FAA0F91E09A0F442391F0E1E0F0E076
:101750009F0102C0220F331FAA95E2F7209345068E
:10176000092E01C0EE0F0A94EAF7E093460611C075
:1017700021E030E0F90102C0EE0FFF1FAA95E2F769
:10178000E0934606092E01C0220F0A94EAF720933F
:101790004506609570954423E1F081110DC060937A
:1017A0002A0870932B08809101088F7E809301088E
:1017B00080910108806228C060932E0870932F08E2
:1017C000809101088F7B80930108809101088068D7
:1017D0001BC081110DC06093280870932908809167
:1017E00001088F7D809301088091010880610CC001
:1017F00060932C0870932D08809101088F77809357
:101800000108809101088064809301080895109276
:101810006C2010926D201092132010922C201092A8
:101820002D2008950C94070C0F931F93CF93DF93F3
:101830001F92CDB7DEB78C0180916C2090916D2006
:1018400069830E9417054091132069814E3008F08A
:1018500071C020912C2030912D202115310599F453
:1018600080916C2090916D20816080936C2090938A
:101870006D204F5F4093132081E090E080932C20F7
:1018800090932D2062C081E00A39124008F080E078
:101890002130310541F4662309F452C0882391F0C8
:1018A00082E090E011C02230310501F12330310592
:1018B00021F12430310509F043C0882309F440C0E8
:1018C0006623F1F183E090E080932C2090932D200B
:1018D00080912C2090912D2083309105A9F4809146
:1018E0006C2090916D20880F991F17C0882341F1BB
:1018F000611126C081E090E0E7CF611121C088230B
:10190000C9F384E090E0E0CF019771F480916C20FE
:1019100090916D20880F991F816080936C20909327
:101920006D204F5F40931320809113208E3060F024
:10193000662351F080916C2090916D200E9470047C
:101940000E94070C80E001C081E00F90DF91CF91F1
:101950001F910F9108955058BB27AA270ED033C16D
:10196000FCD030F001D120F031F49F3F11F41EF48F
:10197000F1C00EF4E095E7FBE7C0E92F46D180F314
:10198000BA17620773078407950718F071F49EF57C
:101990005EC10EF4E0950B2EBA2FA02D0B01B901FC
:1019A00090010C01CA01A0011124FF27591B99F0D5
:1019B000593F50F4503E68F11A16F040A22F232FE1
:1019C000342F4427585FF3CF469537952795A79531
:1019D000F0405395C9F77EF41F16BA0B620B730BD8
:1019E000840BBAF09150A1F0FF0FBB1F661F771F49
:1019F000881FC2F70EC0BA0F621F731F841F48F4FE
:101A0000879577956795B795F7959E3F08F0B3CF83
:101A10009395880F08F09927EE0F9795879508956D
:101A20006FD008F481E00895A7D0E395DDC0F5D02C
:101A300088F09F5790F0B92F9927B751A0F0D1F0B7
:101A4000660F771F881F991F1AF0BA95C9F712C041
:101A5000B13081F0FCD0B1E00895F9C0672F782F44
:101A60008827B85F39F0B93FCCF3869577956795AD
:101A7000B395D9F73EF490958095709561957F4F19
:101A80008F4F9F4F0895E89409C097FB3EF49095BF
:101A90008095709561957F4F8F4F9F4F9923A9F047
:101AA000F92F96E9BB279395F695879577956795D6
:101AB000B795F111F8CFFAF4BB0F11F460FF1BC01A
:101AC0006F5F7F4F8F4F9F4F16C0882311F096E9AD
:101AD00011C0772321F09EE8872F762F05C066235B
:101AE00071F096E8862F70E060E02AF09A95660F14
:101AF000771F881FDAF7880F9695879597F90895CD
:101B0000990F0008550FAA0BE0E8FEEF161617060E
:101B1000E807F907C0F012161306E407F50798F076
:101B2000621B730B840B950B39F40A2661F0232B8F
:101B3000242B252B21F408950A2609F4A140A6950B
:101B40008FEF811D811D089597F99F6780E870E0F0
:101B500060E008959FEF80EC089500240A94161623
:101B6000170618060906089500240A94121613068B
:101B7000140605060895EECF50D0E8F3E894E0E0AF
:101B8000BB279F57F0F02AED3FE049EC06C0EE0F6F
:101B9000BB0F661F771F881F28F0B23A62077307D2
:101BA000840728F0B25A620B730B840BE3959A9565
:101BB00072F7803830F49A95BB0F661F771F881F25
:101BC000D2F79048BAC0092E0394000C11F4882370
:101BD00052F0BB0F40F4BF2B11F460FF04C06F5FE5
:101BE0007F4F8F4F9F4F0895EF93E0FF06C0A2EA0B
:101BF0002AED3FE049EC5FEBC0DEE5DF0F90039498
:101C000001FC9058ECEFF1E0A4C057FD9058440F50
:101C1000551F59F05F3F71F04795880F97FB991F4B
:101C200061F09F3F79F08795089512161306140608
:101C3000551FF2CF4695F1DF08C016161706180695
:101C4000991FF1CF86957105610508940895E89470
:101C5000BB2766277727CB0197F9089551DF08F452
:101C60008FEF08950BD0AFCF78DF28F07DDF18F02D
:101C7000952309F069CF6ECF1124EACFC6DFA0F318
:101C8000959FD1F3950F50E0551F629FF001729F11
:101C9000BB27F00DB11D639FAA27F00DB11DAA1F30
:101CA000649F6627B00DA11D661F829F2227B00D7D
:101CB000A11D621F739FB00DA11D621F839FA00D08
:101CC000611D221F749F3327A00D611D231F849F58
:101CD000600D211D822F762F6A2F11249F575040AF
:101CE0008AF0E1F088234AF0EE0FFF1FBB1F661F4A
:101CF000771F881F91505040A9F79E3F510570F003
:101D000023CFA6CF5F3FECF3983EDCF38695779523
:101D10006795B795F795E7959F5FC1F7FE2B880FFD
:101D2000911D9695879597F908959F9325DF0F90BC
:101D300007FCEE5F59CF9F3F31F0915020F487951B
:101D400077956795B795880F911D9695879597F923
:101D500008959F938F937F936F93FF93EF939B01CE
:101D6000AC0180DFEF91FF9105D02F913F914F9112
:101D70005F9178CFDF93CF931F930F93FF92EF92F2
:101D8000DF927B018C01689405C0DA2EEF0176DFCB
:101D9000FE01E894A5912591359145915591AEF3B9
:101DA000EF01EBDDFE019701A801DA9479F7DF90EE
:101DB000EF90FF900F911F91CF91DF91089503D085
:101DC000808199270895E0ECF1E0378537FDFDCF5C
:101DD000348538603487FC01E050F04F08950E944C
:101DE000E30E808191810895262FE0ECF1E03785A4
:101DF00037FDFDCF3485377F3487378531FF09C004
:101E000036E3328738ED34BF31E03387378537FD2D
:101E1000FDCF33E33287808391831282248325E3CD
:101E2000228728ED31E024BF3387019608950E9470
:0C1E3000F40E272F0C94F50EF894FFCF51
:061E3C0001E80305FF3F71
:00000001FF
