:100000000C940D010C942A010C942A010C942A01E1
:100010000C942A010C942A010C942A010C942A01B4
:100020000C942A010C942A010C942A010C942A01A4
:100030000C942A010C942A010C942A010C942A0194
:100040000C942A010C942A010C942A010C942A0184
:100050000C94CF0C0C942A010C942A010C942A01C4
:100060000C942A010C942A010C942A010C942A0164
:100070000C942A010C942A010C942A010C942A0154
:100080000C942A010C942A010C942A010C942A0144
:100090000C942A010C942A010C942A010C942A0134
:1000A0000C942A010C942A010C942A010C94620CE1
:1000B0000C942A010C942A010C946C010C94A50C4C
:1000C0000C942A010C942A010C942A010C942A0104
:1000D0000C942A010C942A010C942A010C942A01F4
:1000E0000C942A010C942A010C942A010C942A01E4
:1000F0000C942A010C942A010C942A010C942A01D4
:100100000C942A010C942A010C942A010C942A01C3
:100110000C9459020C947E020C942A010C942A012E
:100120000C942A010C942A010C94FC0C0C942A01C6
:100130000C942A010C94C7020C942A010C94A3027B
:100140000C942A010C942A010C942A010C942A0183
:100150000C942A010C942A010C942A010C942A0173
:100160000C942A010C942A010C942A010C942A0163
:100170000C942A010C942A010C942A010C942A0153
:100180000C942A010C942A010C942A010C942A0143
:100190000C942A010C942A010C942A010C942A0133
:1001A0000C942A010C942A010C942A010C942A0123
:1001B0000C942A010C942A010C942A010C942A0113
:1001C0000C942A010C942A010C942A010C942A0103
:1001D0000C942A010C942A010C942A010C942A01F3
:1001E0000C942A010C942A010C942A010C942A01E3
:1001F0000C942A010C942A010C942A0105A84CCDD8
:10020000B2D44EB93836A9020C50B9918688083C50
:10021000A6AAAA2ABE000000803F11241FBECFEF6D
:10022000CDBFD7E2DEBF10E2A0E0B0E2E6E5F2E249
:1002300002C005900D92A235B107D9F720E2A2E5E0
:10024000B0E201C01D92AD38B207E1F70E945B0C2D
:100250000C9429110C940000E0EAF4E0858388EB0B
:10026000818381E0848308950F93909100209923E6
:10027000E1F360936520709366204093642020939F
:1002800060203093612000936220880F8093632068
:100290001092002080916420882321F080916320B7
:1002A0008E7F07C080916220882331F08091632087
:1002B00081608093A60403C081E0809300200F91A9
:1002C00008950F9300E020E030E00E9434010F9188
:1002D00008958091002008951F920F920FB60F92FB
:1002E00011248F939F93EF93FF938091A40483FF36
:1002F00008C08091A40488608093A40482E090E008
:100300006AC08091A40482FF0CC08091A404846020
:100310008093A40481E090E080936720909368200C
:100320005FC08091A40486FF2BC08091A40484FF49
:1003300006C083E08093A30483E090E04CC08091EA
:100340006420882389F0E0916520F09166208191F6
:100350008093A704E0936520F09366208091642049
:100360008150809364203EC080916220882331F0C8
:100370008091632081608093A60434C083E022C012
:100380008091A40487FF25C0809162208823C9F052
:10039000E0916020F09161208091A704808382E049
:1003A0008093A304809160209091612001968093B6
:1003B0006020909361208091622081508093622020
:1003C00011C087E08093A3041092672010926820E8
:1003D00006C084E090E0809367209093682081E0DD
:1003E00080930020FF91EF919F918F910F900FBE0E
:1003F0000F901F9018958FEFE0E6F6E0818380E282
:10040000E0E4F6E081830895F894880F21E030E07D
:10041000082E01C0220F0A94EAF72093650623E014
:1004200001C0220F8A95EAF78AE090E035E83A9514
:10043000F1F700002093670601970097B9F78FEF57
:100440008093660678940895E0E8F3E093E094835F
:100450009FE1958395EC9083918397E092839FE051
:100460009383E0E0F9E0108210A211A220E137E2CC
:1004700026A337A396819360968397819360978391
:1004800028EE33E020A731A795E0908390E2E0E4E6
:10049000F6E095830C940402E0E8F3E08081806349
:1004A000808381818063818310926C2010926B2005
:1004B00008951F920F920FB60F9211248F939F935E
:1004C00080916B208F5F80936B20833080F08091D0
:1004D00080038F7C8093800380E280934706809125
:1004E00020099091210980936D2090936E209F9117
:1004F0008F910F900FBE0F901F9018951F920F9223
:100500000FB60F9211248F939F9380916C208F5F71
:1005100080936C20833080F0809181038F7C809366
:10052000810380E280934706809120099091210900
:100530008093692090936A209F918F910F900FBEB6
:100540000F901F9018951F920F920FB60F921124C3
:100550002F933F934F935F936F937F938F939F93CB
:10056000AF93BF93EF93FF930E944C02FF91EF91E3
:10057000BF91AF919F918F917F916F915F914F91BB
:100580003F912F910F900FBE0F901F9018951F92C3
:100590000F920FB60F9211248F93EF93FF9381E088
:1005A00080930120E0E8F3E080818F7C808381816B
:1005B0008F7C818380E2E0E4F6E08683FF91EF9117
:1005C0008F910F900FBE0F901F90189560936F2022
:1005D0004093702042E06FE670E20C9461010F934B
:1005E000CF93DF9300D0CDB7DEB76A8301E09E01E1
:1005F0002F5F3F4F41E0BE016E5F7F4F0E9434018D
:100600000E9469018823E1F389810F900F90DF91A7
:10061000CF910F910895AF92BF92CF92DF92EF9258
:10062000FF920F931F93CF93DF93CDB7DEB7962F33
:10063000EDB6FEB6022F10E0F80131966DB77EB729
:100640006E1B7F0B6DBF7EBF6F5F7F4FADB7BEB7B9
:1006500011969C935A01E0E0F0E0E017F10754F4A2
:100660003196D5019D915D016B01CE0EDF1ED60145
:100670009C93F3CF41E0420F0E946101EDBEFEBEAC
:10068000DF91CF911F910F91FF90EF90DF90CF906E
:10069000BF90AF9008950F931F93CF93DF931F9256
:1006A000CDB7DEB76983122F022F9A0141E0BE0158
:1006B0006F5F7F4F0E9434010E9469018823E1F33C
:1006C000812F0F90DF91CF911F910F91089560932B
:1006D0006F20509370204093712043E06FE670E2EA
:1006E0000C9461010F93CF93DF9300D01F92CDB78D
:1006F000DEB76B8302E09E012F5F3F4F41E0BE01FA
:100700006D5F7F4F0E9434010E9469018823E1F3ED
:10071000898190E0982F88272A81822B2396CDBF4C
:10072000DEBFDF91CF910F9108959C01332702C066
:10073000220F331F9A95E2F7C901019608950F938E
:100740001F930097C9F0AC014150510960E070E07F
:1007500080E090E08A019B010027012B022B032BF4
:1007600031F076956795579547950196F3CF982F79
:100770008827842B952B02C080E090E01F910F9179
:1007800008958F929F92AF92BF92CF92DF92EF9295
:10079000FF92CF93DF93EC01A62FB0E020E03FE281
:1007A0004AE350E00E949C106C507E4F8F4F9F4F49
:1007B000F8EE8F2EF3E09F2EA12CB12CA501940111
:1007C0000E947A1069017A01F694E794D794C7944D
:1007D000DE010E949C10C60ED71EE81EF91EC7013E
:1007E000B601A50194010E947A10CA01B901DF91F6
:1007F000CF91FF90EF90DF90CF90BF90AF909F9000
:100800008F9008954F925F926F927F928F929F92F6
:10081000AF92BF92CF92DF92EF92FF922B013C01F9
:10082000A42FB0E020E03FE24AE350E00E949C1099
:100830006C507E4F8F4F9F4F28EE33E040E050E0EA
:100840000E947A1049015A0169017A01F694E794ED
:10085000D794C794A8EEB3E0A30192010E949C1024
:10086000C60ED71EE81EF91EC701B601A5019401E8
:100870000E947A10CA01B901FF90EF90DF90CF90EB
:10088000BF90AF909F908F907F906F905F904F90B0
:100890000895CF93C62F462F440F4E776AE80E94E3
:1008A000E6028C2FCF910895FF920F931F93CF9361
:1008B000DF93F82E8B01EA0169E80E94EF02482FCE
:1008C0000130110511F4416001C04E7F69E88F2DA0
:1008D0000E94E60240E068E88F2D0E94E60241E0B7
:1008E00060E88F2D0E94E60241E06FEF8F2D0E949D
:1008F000E60240E060E08F2D0E94E60261E98F2D64
:100900000E94EF02888341E060E08F2D0E94E602A2
:1009100040E06FEF8F2D0E94E60240E060E88F2DEF
:100920000E94E60240E250E064E48F2D0E946703DB
:100930004FEF61E08F2DDF91CF911F910F91FF90CD
:100940000C94E602CF93DF93C82FD42F462F6AE092
:100950000E94E60264E88C2F0E94EF02482FD1111A
:1009600002C0406101C04F7E64E88C2F0E94E60205
:1009700041E06BE08C2FDF91CF910C94E602CF9396
:10098000C82F462F416060E00E94E60263E18C2F91
:100990000E94EF028770D1F341E06BE08C2F0E9440
:1009A000E60240E060E08C2FCF910C94E602FF92CB
:1009B0000F931F93CF93DF93182F062FF42EE90187
:1009C00041E06FEF0E94E60240E06FE4812F0E9459
:1009D000E6024CE26EE4812F0E94E60240E06FEFF7
:1009E000812F0E94E60244EB66EB812F0E94E60213
:1009F000FF2011F07CE001C070E080E090E041E079
:100A000050E0282F269526952695A82FA770FE0141
:100A1000E20FF11D871710F090130BC09A010A2EF8
:100A200001C0220F0A94EAF72095308132233083E7
:100A300009C0208130E002C035952795AA95E2F7DC
:100A400020FD9F5F8F5F8033E1F626E0AE0160EB13
:100A5000812FDF91CF911F910F91FF900C940B0389
:100A60006115710511F460E504C06130710531F460
:100A700060E70E94EF028F5F880F08958FEF08955F
:100A8000CF93DF93EB0161E00E94EF0284FB992793
:100A900090F9988383FB992790F99A8382FB992791
:100AA00090F9998386FB992790F99B83881F882763
:100AB000881F8C83DF91CF910895FF920F931F932E
:100AC000CF93DF93F82E8B01EA0160E070E00E9483
:100AD000300590E08883998366E48F2D0E94EF02B1
:100AE00090E001968C839D8368810E94C1036A8790
:100AF0007B878C879D8761E58F2D0E9472030E9402
:100B000095038E839F8368810E94C1036E877F87D0
:100B1000888B998B60E78F2D0E94EF028F5F880F83
:100B200090E08A839B8361E78F2D0E9472030E946D
:100B3000950388879987F8012381222331F02E813C
:100B40003F81821B930B888799876A818885998565
:100B50000E94C1036A8B7B8B8C8B9D8BDF91CF9125
:100B60001F910F91FF9008950F931F93CF93DF93E1
:100B7000CDB7DEB76B97CDBFDEBF182FBE01695E64
:100B80007F4F0E944005AE014F5F5F4FBE01695E1F
:100B90007F4F812F0E945D058F89882349F06B85E7
:100BA0007C858D859E856C57724F8F4F9F4F04C0FB
:100BB00066E37BE080E090E0298D222369F00B85DD
:100BC0001C852D853E850E541D4F2F4F3F4F000F26
:100BD000111F221F331F0BC0288D222361F00B85AC
:100BE0001C852D853E850C561D4F2F4F3F4F600FA6
:100BF000711F821F931F2A8D222361F00F85188990
:100C000029893A890C561D4F2F4F3F4F600F711F96
:100C1000821F931F2B8D222361F00B891C892D8944
:100C20003E890A5D1D4F2F4F3F4F600F711F821F7E
:100C3000931F6B96CDBFDEBFDF91CF911F910F91B8
:100C40000895AF92BF92CF92DF92EF92FF920F93EF
:100C50001F93CF93DF93CDB7DEB76B97CDBFDEBFCA
:100C6000B82E6A017B0140322EE4520761057105FE
:100C700008F472C0BE01695E7F4F0E944005AE015C
:100C80004F5F5F4FBE01695E7F4F8B2D0E945D05F8
:100C90008F89882349F08B859C85AD85BE858A5CCC
:100CA000944FAF4FBF4F04C088EE98E0A0E0B0E093
:100CB000298D222369F00B851C852D853E850E54D8
:100CC0001D4F2F4F3F4F000F111F221F331F0BC00F
:100CD000288D222361F00B851C852D853E850C56C1
:100CE0001D4F2F4F3F4F800F911FA21FB31FAA8C84
:100CF000AA2061F00F85188929893A890C561D4F61
:100D00002F4F3F4F800F911FA21FB31F2B8D222308
:100D100019F18A5D9D4FAF4FBF4FC816D906EA063D
:100D2000FB06D0F0A7019601281B390B4A0B5B0B81
:100D3000CA01B9014B810E9402049B01AA2021F043
:100D40002F813885260F371FC9010E949F03AC01F0
:100D500061E78B2D0E9467036B96CDBFDEBFDF91ED
:100D6000CF911F910F91FF90EF90DF90CF90BF90A8
:100D7000AF900895FF920F931F93CF93DF93F82EB8
:100D8000EB018A0141E060E80E94E60241E06FEF7A
:100D90008F2D0E94E60240E060E08F2D0E94E60267
:100DA00046E06FEF8F2D0E94E60263E88F2D0E94D0
:100DB000EF02482F446063E88F2D0E94E60247E06F
:100DC0006FEF8F2D0E94E60241E061E88F2D0E94B7
:100DD000E60241E060E88F2D0E94E6024BE664E9FE
:100DE0008F2D0E94E60240E063E88F2D0E94E6020C
:100DF00063E88F2D0E94EF028823D1F341E063E87E
:100E00008F2D0E94E60262E98F2D0E94EF02982F3B
:100E10009F779883881F8827881FF801808340E088
:100E200061E88F2D0E94E60246E06FEF8F2D0E9451
:100E3000E60263E88F2D0E94EF02482F4B7F63E8A4
:100E40008F2D0E94E60241E06FEF8F2D0E94E60297
:100E500041E060E08F2D0E94E60240E06FEF8F2DB1
:100E60000E94E60240E060E88F2DDF91CF911F9154
:100E70000F91FF900C94E602CF93C82F41E06FEFE3
:100E80000E94E60240E060E08C2F0E94E60240E013
:100E90006FEF8C2F0E94E60240E069E08C2F0E94E9
:100EA000E60240E060E18C2F0E94E60240E061E152
:100EB0008C2F0E94E60241E064E28C2F0E94E60241
:100EC0004FEF65E28C2F0E94E60240E065E78C2F31
:100ED0000E94E60241E06FEF8C2F0E94E6024CE296
:100EE0006EE48C2F0E94E60240E068E48C2F0E94A2
:100EF000E60240E260E38C2F0E94E60240E06FEFE2
:100F00008C2F0E94E60249E060E38C2F0E94E602EB
:100F100040E064E58C2F0E94E60244E061E38C2F00
:100F20000E94E60243E062E38C2F0E94E60243E85F
:100F300060E48C2F0E94E60245E266E48C2F0E945A
:100F4000E60240E060E68C2F0E94E60240E067E2A5
:100F50008C2F0E94E60246E060E58C2F0E94E6029C
:100F600040E061E58C2F0E94E60246E962E58C2FA5
:100F70000E94E60248E066E58C2F0E94E60240E30C
:100F800067E58C2F0E94E60240E061E68C2F0E940C
:100F9000E60240E062E68C2F0E94E60240E064E652
:100FA0008C2F0E94E60240E065E68C2F0E94E6024C
:100FB00040EA66E68C2F0E94E60241E06FEF8C2F3C
:100FC0000E94E60242E362E28C2F0E94E60244E1C4
:100FD00067E48C2F0E94E6024FEF69E48C2F0E9499
:100FE000E60240E06AE48C2F0E94E60240E06FEFE8
:100FF0008C2F0E94E6024AE06AE78C2F0E94E602EC
:1010000040E06BE78C2F0E94E60241E268E78C2FFC
:101010000E94E60241E06FEF8C2F0E94E60244E35B
:1010200063E28C2F0E94E60240E062E48C2F0E9473
:10103000E6024FEF64E48C2F0E94E60246E265E48C
:101040008C2F0E94E60245E066E48C2F0E94E602A7
:1010500040E460E48C2F0E94E60246E06EE08C2FB4
:101060000E94E6024AE160E28C2F0E94E60240E420
:1010700063E48C2F0E94E60240E06FEF8C2F0E9409
:10108000E60243E064E38C2F0E94E60244E465E359
:101090008C2F0E94E60241E06FEF8C2F0E94E60247
:1010A00044E061E38C2F0E94E60249E06BE48C2F60
:1010B0000E94E60245E06CE48C2F0E94E60244E0C8
:1010C0006DE48C2F0E94E60240E06FEF8C2F0E94AF
:1010D000E60240E064E48C2F0E94E60240E265E410
:1010E0008C2F0E94E60248E067E48C2F0E94E60203
:1010F00048E268E48C2F0E94E60240E067E68C2F0D
:101100000E94E60244E060E78C2F0E94E60241E084
:1011100061E78C2F0E94E6024EEF62E78C2F0E945F
:10112000E60240E066E78C2F0E94E60240E067E7B7
:101130008C2F0E94E60241E06FEF8C2F0E94E602A6
:1011400041E06DE08C2F0E94E60240E06FEF8C2FB3
:101150000E94E60241E060E88C2F0E94E60248EF20
:1011600061E08C2F0E94E60241E06FEF8C2F0E941D
:10117000E60241E06EE88C2F0E94E60241E060E06A
:101180008C2F0E94E60240E06FEF8C2F0E94E60257
:1011900040E060E88C2FCF910C94E602CF92DF9272
:1011A000EF92FF921F93CF93DF93CDB7DEB72897CF
:1011B000CDBFDEBF182FAE01495F5F4FBE01685F34
:1011C0007F4F0E94BA0626E0AE014F5F5F4F60EB93
:1011D000812F0E944B039E012F5F3F4F4F816885F7
:1011E000812F0E94D704812F0E943C0741E064E0D8
:1011F00070E0812F0E94A204812F0E94B4056B0130
:101200007C0148EE61E0812F0E94E602B701A60151
:10121000812F0E94210641E061E0812F0E94E602B9
:1012200060E4812F0E94BF0442E061E0812F0E94B0
:10123000E60260E0812F0E94BF0448EE61E0812F4A
:101240000E94E6022896CDBFDEBFDF91CF911F91AD
:10125000FF90EF90DF90CF90089590915220809171
:101260007720923031F481110EC083E080935220B8
:1012700006C0943041F4811106C01092522082E5DC
:1012800090E20E941F0A80917720882319F08150F4
:10129000809377200895CF93DF9300D0CDB7DEB74A
:1012A000809152209091532089839A83CE01019698
:1012B0000E940F0A2981822F90E03A8130935320B7
:1012C0008130910519F4209352200AC0029731F41D
:1012D0002093522084E68093772002C010925220FF
:1012E0000F900F90DF91CF9108958B3091F4809102
:1012F0005220823068F56E7F80915320681741F14B
:1013000084E08093522084E680937720609353207A
:101310001BC08730E9F4262F2E7F30E080915320C8
:1013200090E028173907A1F460FF08C0809152208F
:1013300081110AC081E08093522006C082E0809330
:10134000522084E68093772082E590E20C941F0A75
:1013500008958091522090E008958091532008953F
:10136000609383204093842042E063E870E20E940F
:1013700061010E9469018823E1F308950895462FD1
:1013800061E00C94B009462F409563E00C94B009DD
:10139000FC012191CF01222339F03091B10835FFB2
:1013A000FCCF2093B008F4CF0895CF93DF93CDB74F
:1013B000DEB76097CDBFDEBF462F50E0BE016F5F46
:1013C0007F4F0E94B610CE0101960E94C809609618
:1013D000CDBFDEBFDF91CF910895E0EBF8E080ED67
:1013E000878383E8868383E0858388E18483089507
:1013F000BC0126E0969587952A95E1F78F716F736A
:1014000081110AC06B3321F491E09093022004C053
:101410006A3311F4109202200C9475090895CF9349
:10142000DF93EC0181E090E00E94E610888380E089
:1014300090E00E94E6108983DF91CF910895CF93C9
:10144000DF93EC01688181E090E00E94F6106981F1
:1014500080E090E0DF91CF910C94F610CF93DF9372
:10146000CDB7DEB72597CDBFDEBF87E08093A20062
:1014700078948BE990E00E942C0160E080E00E946B
:101480006B0D80E20E94BE096FEF80E20E94C309EB
:101490006CE080E20E94BF098FE79EE30197F1F7BD
:1014A00000C00000AE014F5F5F4F61E070E089E275
:1014B0000E945404BE016F5F7F4F89E20E94CE08F4
:1014C0006AE289E20E94490480E8809341060E9412
:1014D000ED0986E290E20E94C8090E94AD0D80915C
:1014E00092068093920680918A06846080938A0691
:1014F000809189068F60809389061092200A10924D
:10150000210A83E08093060A0E944B0983E090E25F
:101510000E94C8090E94A9098130910549F028F06C
:10152000029749F489E290E208C084E190E205C0A4
:101530008FE190E202C088E390E20E94C80982E451
:1015400090E20E94C8090E94AD096AE090E00E9402
:10155000D50986E290E20E94C80988E893E1809369
:10156000660890936708109260081092610885E001
:101570008093400883E08093460820E047E050E0F5
:1015800060E170E080E092E00E947B0D40E050E07E
:1015900060E480E292E00E94920D40E050E068E456
:1015A00088E292E00E94920D40E050E060E580E326
:1015B00092E00E94920D41E050E068E588E392E0FD
:1015C0000E94920D68EC70E080E092E00E94980D1D
:1015D0000E94FB012596CDBFDEBFDF91CF9108951C
:1015E0008F929F92AF92BF92CF92DF92EF92FF9233
:1015F000809102206091582070915920811103C080
:1016000071956195710980E090E00E94DE0E2DECED
:101610003CEC4CEC5CE30E94CD0F60935420709343
:10162000552080935620909357200E94A909892B1A
:1016300009F083C0C0905420D0905520E0905620EF
:10164000F0905720C701B6010E94AF0E4B015C011C
:10165000C701B6010E9430106B017C01C501B401C5
:101660009F7720E030E04FE753E40E94CD0F9B01CD
:10167000AC0160E070E08FE793E40E94460E0E94A8
:10168000B20E862F0E942F0DC701B6019F7720E072
:1016900030E04FE753E40E94CD0F9B01AC0160E0C6
:1016A00070E08FE793E40E94460E0E94B20E862FF0
:1016B0000E94320D20E030E0A901C701B6010E946E
:1016C000AB0E87FF03C063E070E002C061E070E032
:1016D00080E00E94350D20E030E0A901C501B40191
:1016E0000E94C90F18161CF462E070E002C061E0AD
:1016F00070E081E00E94350D20E030E0A901C501D5
:10170000B4010E94AB0E682F772767FD709566279E
:10171000770F661F77276F5F7F4F82E00E94350D3E
:1017200020E030E0A901C701B6010E94C90F1816D8
:101730000CF051C063E070E096C00E94A9090197C7
:10174000B9F5809178209091792061E070E0883B34
:101750009B4010F460E070E082E00E94350D8091C3
:101760007A2090917B2061E070E0883B9B4010F4F0
:1017700060E070E083E00E94350D80917C209091C4
:101780007D2061E070E0883B9B4010F460E070E0F9
:1017900080E00E94350D80917E2090917F2061E055
:1017A00070E0883B9B4010F460E070E081E05CC03A
:1017B0000E94A909049791F461E070E080E00E9422
:1017C000350D61E070E081E00E94350D61E070E070
:1017D00082E00E94350D61E070E045C00E94A909D9
:1017E000029791F460E070E080E00E94350D60E0C7
:1017F00070E081E00E94350D60E070E082E00E94C0
:10180000350D60E070E02FC060915420709155203C
:1018100080915620909157200E94AF0E9F7720E034
:1018200030E04FE753E40E94CD0F9B01AC0160E034
:1018300070E08FE793E40E94460E0E94B20E862F5E
:101840000E942F0D62E070E080E00E94350D62E0A2
:1018500070E081E00E94350D62E070E082E00E945D
:10186000350D62E070E083E00E94350D0E944A0D64
:101870008FEF9DEE22E0815090402040E1F700C0C4
:10188000000081E0FF90EF90DF90CF90BF90AF908D
:101890009F908F900C94240288ED84BF82E0809307
:1018A00050008091510081FFFCCF88ED84BF81E022
:1018B0008093400008950E944C0C0E942E0A0E94C2
:1018C000F00AFDCF1F920F920FB60F9211242F93A3
:1018D0003F934F935F936F937F938F939F93AF93B8
:1018E000BF93CF93DF93EF93FF93C0E0DAE01882CA
:1018F00088A199A18093802090938120E0E8F6E070
:10190000808582FB882780F98093822060918220E5
:1019100080918020909181200E94AF0D18A219A281
:1019200085E08883FF91EF91DF91CF91BF91AF91D7
:101930009F918F917F916F915F914F913F912F91E7
:101940000F900FBE0F901F9018951F920F920FB619
:101950000F9211242F933F934F935F936F937F9335
:101960008F939F93AF93BF93EF93FF9360E070E0EB
:1019700080E090E00E94A20D1092000AFF91EF918A
:10198000BF91AF919F918F917F916F915F914F9197
:101990003F912F910F900FBE0F901F9018951F929F
:1019A0000F920FB60F9211242F933F934F935F9393
:1019B0006F937F938F939F93AF93BF93EF93FF9317
:1019C00080915820909159200196809358209093AF
:1019D00059200E942D09FF91EF91BF91AF919F91E6
:1019E0008F917F916F915F914F913F912F910F90C8
:1019F0000FBE0F901F9018951F920F920FB60F9267
:101A000011248F939F93EF93FF93E0E0F2E080899E
:101A1000918980937820909379208289938980930B
:101A20007A2090937B208489958980937C20909361
:101A30007D208689978980937E2090937F20FF91D7
:101A4000EF919F918F910F900FBE0F901F9018955F
:101A500010925D2010925C2010925B20089580937C
:101A60005D20089580935C200895880F23E030E086
:101A7000082E01C0220F0A94EAF7209590915B206E
:101A80002923082E01C0660F0A94EAF7262B20931B
:101A90005B20089581E18093832080915F20809373
:101AA000842080915D208093852080915E208093AA
:101AB000862080915C208093872080915B2080939A
:101AC00088200E9469018823E1F346E063E870E220
:101AD00082E60C94610180935F2060935E200E94F7
:101AE000280D0C944A0DAAECB1E022E02C93FC01E5
:101AF00084911C920895CF93DF93EC0181E0888359
:101B000029836A834C8380E290E00E94730D8C8766
:101B100081E290E00E94730D8D878DEE8B83DF91C3
:101B2000CF910895FC0181E0808361834283089511
:101B30002DEEFC01238321E02083E0E8F1E06583C2
:101B40001586089510928B2010928C2010925A20A6
:101B50001092892010928A2008950C94A20D0F9360
:101B60001F93CF93DF931F92CDB7DEB78C01809187
:101B70008B2090918C2069830E940E0A40915A20FC
:101B800069814E3008F071C02091892030918A20FF
:101B90002115310599F480918B2090918C208160E2
:101BA00080938B2090938C204F5F40935A2081E04C
:101BB00090E08093892090938A2062C081E00A3966
:101BC000124008F080E02130310541F4662309F429
:101BD00052C0882391F082E090E011C0223031059C
:101BE00001F12330310521F12430310509F043C0E2
:101BF000882309F440C06623F1F183E090E08093EC
:101C0000892090938A208091892090918A20833026
:101C10009105A9F480918B2090918C20880F991FB9
:101C200017C0882341F1611126C081E090E0E7CF21
:101C3000611121C08823C9F384E090E0E0CF0197CF
:101C400071F480918B2090918C20880F991F816076
:101C500080938B2090938C204F5F40935A208091EB
:101C60005A208E3060F0662351F080918B20909145
:101C70008C200E94F8090E94A20D80E001C081E042
:101C80000F90DF91CF911F910F9108955058BB276E
:101C9000AA270ED033C1FCD030F001D120F031F4AE
:101CA0009F3F11F41EF4F1C00EF4E095E7FBE7C08E
:101CB000E92F46D180F3BA176207730784079507A7
:101CC00018F071F49EF55EC10EF4E0950B2EBA2F5C
:101CD000A02D0B01B90190010C01CA01A001112432
:101CE000FF27591B99F0593F50F4503E68F11A16DE
:101CF000F040A22F232F342F4427585FF3CF46956F
:101D000037952795A795F0405395C9F77EF41F1690
:101D1000BA0B620B730B840BBAF09150A1F0FF0F5A
:101D2000BB1F661F771F881FC2F70EC0BA0F621F46
:101D3000731F841F48F4879577956795B795F79536
:101D40009E3F08F0B3CF9395880F08F09927EE0FC8
:101D50009795879508956FD008F481E00895A7D0EE
:101D6000E395DDC0F5D088F09F5790F0B92F992703
:101D7000B751A0F0D1F0660F771F881F991F1AF096
:101D8000BA95C9F712C0B13081F0FCD0B1E0089526
:101D9000F9C0672F782F8827B85F39F0B93FCCF3A7
:101DA000869577956795B395D9F73EF4909580958C
:101DB000709561957F4F8F4F9F4F0895E89409C0AC
:101DC00097FB3EF490958095709561957F4F8F4F6E
:101DD0009F4F9923A9F0F92F96E9BB279395F69584
:101DE000879577956795B795F111F8CFFAF4BB0F02
:101DF00011F460FF1BC06F5F7F4F8F4F9F4F16C066
:101E0000882311F096E911C0772321F09EE8872FEF
:101E1000762F05C0662371F096E8862F70E060E0AB
:101E20002AF09A95660F771F881FDAF7880F969524
:101E3000879597F90895990F0008550FAA0BE0E8C8
:101E4000FEEF16161706E807F907C0F0121613067C
:101E5000E407F50798F0621B730B840B950B39F4BC
:101E60000A2661F0232B242B252B21F408950A2622
:101E700009F4A140A6958FEF811D811D089597F962
:101E80009F6780E870E060E008959FEF80EC089520
:101E900000240A9416161706180609060895002449
:101EA0000A9412161306140605060895EECF50D0B4
:101EB000E8F3E894E0E0BB279F57F0F02AED3FE01D
:101EC00049EC06C0EE0FBB0F661F771F881F28F076
:101ED000B23A62077307840728F0B25A620B730B99
:101EE000840BE3959A9572F7803830F49A95BB0F7E
:101EF000661F771F881FD2F79048BAC0092E039437
:101F0000000C11F4882352F0BB0F40F4BF2B11F4E6
:101F100060FF04C06F5F7F4F8F4F9F4F0895EF9317
:101F2000E0FF06C0A2EA2AED3FE049EC5FEBC0DE2D
:101F3000E5DF0F90039401FC9058ECEFF1E0A4C0B2
:101F400057FD9058440F551F59F05F3F71F047956A
:101F5000880F97FB991F61F09F3F79F0879508954F
:101F6000121613061406551FF2CF4695F1DF08C06E
:101F7000161617061806991FF1CF8695710561058B
:101F800008940895E894BB2766277727CB0197F933
:101F9000089551DF08F48FEF08950BD0AFCF78DFAD
:101FA00028F07DDF18F0952309F069CF6ECF11245A
:101FB000EACFC6DFA0F3959FD1F3950F50E0551FF0
:101FC000629FF001729FBB27F00DB11D639FAA278E
:101FD000F00DB11DAA1F649F6627B00DA11D661FDD
:101FE000829F2227B00DA11D621F739FB00DA11DFE
:101FF000621F839FA00D611D221F749F3327A00DB8
:10200000611D231F849F600D211D822F762F6A2F53
:1020100011249F5750408AF0E1F088234AF0EE0FD8
:10202000FF1FBB1F661F771F881F91505040A9F7E5
:102030009E3F510570F023CFA6CF5F3FECF3983E53
:10204000DCF3869577956795B795F795E7959F5F4C
:10205000C1F7FE2B880F911D9695879597F90895E6
:102060009F9325DF0F9007FCEE5F59CF9F3F31F024
:10207000915020F4879577956795B795880F911DB6
:102080009695879597F908959F938F937F936F9374
:10209000FF93EF939B01AC0180DFEF91FF9105D09F
:1020A0002F913F914F915F9178CFDF93CF931F9303
:1020B0000F93FF92EF92DF927B018C01689405C031
:1020C000DA2EEF0176DFFE01E894A5912591359196
:1020D00045915591AEF3EF01EBDDFE019701A801AB
:1020E000DA9479F7DF90EF90FF900F911F91CF91E5
:1020F000DF910895A1E21A2EAA1BBB1BFD010DC0A2
:10210000AA1FBB1FEE1FFF1FA217B307E407F507A7
:1021100020F0A21BB30BE40BF50B661F771F881F83
:10212000991F1A9469F760957095809590959B0119
:10213000AC01BD01CF0108950E94A710A59F900D8D
:10214000B49F900DA49F800D911D11240895A29F0E
:10215000B001B39FC001A39F700D811D1124911D7B
:10216000B29F700D811D1124911D089545325105B6
:1021700020F4423010F00C94C110FB011082CB010E
:102180000895BB274A3031F4992322F4BDE290959B
:1021900081959F4F0C94CD10BB27FB015527AA2793
:1021A000880F991FAA1FA41710F0A41B83955051E4
:1021B000B9F7A05DAA3308F0A95DA193009779F75C
:1021C000B111B1931192CB010C94191103D08081FC
:1021D00099270895E0ECF1E0378537FDFDCF348590
:1021E00038603487FC01E050F04F0895262FE0EC72
:1021F000F1E0378537FDFDCF3485377F348737856C
:1022000031FF09C036E3328738ED34BF31E0338720
:10221000378537FDFDCF33E3328780839183128288
:10222000248325E3228728ED31E024BF33870196FC
:102230000895DC01FC01672F71917723E1F7329754
:1022400004C07C916D9370836291AE17BF07C8F391
:062250000895F894FFCF91
:1022560001010143757272656E7420737461747541
:10226600733A2000504F5745525F4F4E0A0D0053A8
:102276005441525445440A0D0053544F505045445E
:102286005F534146450A0D00554E4B4E4F574E0A79
:102296000D0043757272656E7420646F68796F3ACB
:0222A600200016
:00000001FF
